:400000000080002011000000590D0000590D000080B500AF024A034B1B68136000F0CEFEBC760040FA460040010000000020004001000000002001400100000000480040D5
:400040000100000000480140010000000100000008000223000008760800032300001076080004230000287608000523000030760500062300002070050007230000307065
:4000800005000823000060700500FE230000707019000A220000C84930000B22000040511000FE220000F05100020D220000000000020E220000000E80010F22000000144E
:4000C000800110220000001680001122000000438000FE22000000470700132300000052070014230000105206001523000060520C0016230000004F200017230000706479
:400100002000FE2300007065080019230000005180001A230000000280001B230000800280001C230000000480001D230000800480001E230000000680001F2300008006FF
:4001400080002023000000088000212300008008800022230000000A800023230000800A800024230000000C800025230000800C80002623000000188000272300008018DF
:40018000800028230000001A800029230000801A10002A230000105010002B230000005080002C230000004D80002D230000804D80002E230000004C80002F230000804C15
:4001C0008000302300008047800031230000004680003223000080468000332300000045800034230000804580003523000000448000362300008044800037230000001B4B
:40020000800038230000801B800039230000801580003A230000001980003B230000801980003C230000801780003D230000000980003E230000800980003F2300000007B8
:400240008000402300008007800041230000000B800042230000800B80004323000000058000442300008005800045230000000D800046230000800D800047230000000306
:400280008000482300008003800049230000004980004A230000804980004B230000004880004C230000804880004D230000804380004E230000004280004F23000080425E
:4002C0008000502300000041800051230000804180005223000000408000FE230000804010B5054C237833B9044B13B10448AFF300800123237010BD9089FF1F00000000A6
:40030000F0350000084B10B51BB108490848AFF300800848036803B910BD074B002BFBD0BDE81040184700BF000000009489FF1FF0350000C880FF1F00000000F0B5ADF545
:40034000697D06AF002387F887330023A7F88433C82000F0D9FE00F011FE00F057FF02F01BF902F079F9072002F05AF901F05EF901F074F902F078FA02F088FA714802F01A
:40038000C9FA02F061FA704B0F221A706F4B1B889BB2184600F0FCF80346DB031AB26B4B1B889BB21BB213431BB29AB2674B1A8000F012F903461A46654B1A6007F10803D9
:4003C000029364230193634B009342F21073002200210A2000F00AF962B601F0C3FE002001F04CF90346002B10D001F06DF903461A46594B1A60584B1B68A3F500535B00F7
:40040000554A1360544B1B68544A1360544B1B78DBB2012B4CD1072002F002F900F0DCF803461A464A4B1A604D4B00221A704D4B18684D4B196807F10803002200F01EF93E
:4004400002464A4B1A60494B00221A6007F10803186807F108035D6807F108039A6807F1080303F12804D4E900341E4607F1080303F13004D4E900347B6007F1080303F13F
:400480003804D4E900341C46394B1B68394909680591049303947B680293019600922B4602463549354802F07FFC344800F02AFF002001F0E3F80346002B0CD001F004F96E
:4004C00003461A46284B1A60274B1B68A3F500535B00254A1360214B1A6813465B0013445A011A44204B1B681344254A82FB03125211DB17D31A1C4A13601B4B1B68174AEC
:400500001360194B1B6847F69C72934204DD164B47F69C721A6007E0134B1B68194A934202DA114B174A1A6002F08AF803461A46154B1A70144B1B78002B134B1A78134BB5
:400540001A7063E700943577108AFF1FCC80FF1FB890FF1FF0D8FFFFBC89FF1FC089FF1FC490FF1FB489FF1FB889FF1FAC89FF1FCC90FF1FC489FF1FFC3500005890FF1FB4
:400580001F85EB516480FFFFC889FF1FC989FF1F80B485B000AF0346FB800023FB730023BB730DE0FB8803F00103002B02D0FB7B0133FB73FB885B08FB80BB7B0133BB7367
:4005C000BB7B0F2BEED9FB7B03F00103DBB218461437BD4680BC704780B400AF024B1B681846BD4680BC7047B890FF1F90B484B000AFF860B9607A603B603B6AFA681A612F
:400600003B6ABA685A613B6A7A689A613B6A3A68DA613B6ABA691A623B6AFA691A643B6A00225A603B6A00221A603A6A4FF000034FF00004C2E90E343A6A4FF000034FF06D
:400640000004C2E90C343A6A4FF000034FF00004C2E912343A6A4FF000034FF00004C2E90A343B6A0022DA603B6A00229A60002318461037BD4690BC704700BFB0B586B075
:4006800000AFF860B9607A603B603B68FA681A603B68BA685A603B687A68DA603B685A683B681B68D31A7B613B681B697A6902FB03F34F4A82FB03129211DB17D31A4FEAB1
:4006C000E3743A68C2E90A343B685B697A6902FB03F3474A82FB03129211DB17D31A3B613B68D3E90C123B694FEAE374C91842EB04023B681B6A4FEAE374994272EB0403DE
:4007000007DA3B681B6A4FEAE3743A68C2E90C3425E03B68D3E90C123B694FEAE3745B1844EB02043A68D26911464FEAE172994272EB040307DA3B68DB694FEAE3743A683C
:40074000C2E90C340BE03B68D3E90C123B694FEAE3745B1844EB02043A68C2E90C347B6919464FEAE1723B6803F14804D4E90034C91A62EB04023B689B694FEAE37403FBAF
:4007800002F501FB04F00544A1FB03016B1819464FF47A724FF0000302F006F903460C463A68C2E90E347B694FEAE3743A68C2E912343B68DB681A463B6803F12804D4E92E
:4007C00000341A443B6803F13004D4E900341A443B6803F13804D4E9003413441A463B689A603B689B6818461837BD46B0BD00BFD34D621080B584B000AFF860B9607A60BE
:400800007A68B968F86802F0C3FA00BF1037BD4680BD00BF80B483B000AF0346FB71FEE780B483B000AF434B00221A60424B10221A70424B01221A70414B00221A70414B6A
:400840004FF424721A80404B01221A703F4B03221A703F4B3F4A92B21A803F4B47F608021A803E4B00221A803D4B4FF480421A803C4B09221A703C4B0C221A703B4B122297
:400880001A703B4B18221A70BFF35F8F394B01221A70BFF35F8F00BF2A4B1B889BB2002BFAD100237B600DE07B68DA00324B13441946324A7B6852F823309BB20B807B6847
:4008C00001337B607B68512BEED9BFF35F8F294B01221A70BFF35F8F00BF294B1B78DBB203F00103002BF8D100BF264B1B78DBB203F00103002BF8D100BF234B1B78DBB29C
:4009000003F00103002BF8D100BF204B1B78DBB203F00103002BF8D100BF1D4B1B78DBB203F00103002BF8D100BF0C37BD4680BC704700BFD089FF1F0076004010700040C1
:4009400019700040007800400278004003780040047800405000000006780040047600400676004029700040397000406970004079700040147000400C7800402C36000053
:40098000187000402870004038700040687000407870004080B582B000AF4F4B00221A804E4B50221A704E4B03221A804D4B18221A704D4B17221A804C4B18221A704C4B5D
:4009C00033221A804B4B18221A704B4B5F221A804A4B18221A704A4B4BF67F321A80494B18221A70484B40F2E7321A80474B1B221A70042246494748FFF7FCFE464B06226D
:400A00001A70464B464A1278D2B21A70454B52221A70454B4FF4E2621A80444B41F251221A800023FB7019237B6013E0FB785B00DAB23F4B1B78DBB203F00103DBB21343EF
:400A4000DBB203F00303FB70782001F08DFF7B68013B7B607B68002B02D0FB78032BE5D17B68002B02D10320FFF7D4FE314B4FF480721A802F4B07221A702F4B00221A70D5
:400A80002E4B48221A702B4B00221A702C4B00221A702C4B02221A702B4B04221A702B4A2A4B1B78DBB243F07F03DBB21370284A274B1B78DBB243F00103DBB21370254AB0
:400AC000244B1B78DBB263F07F03DBB2137000BF0837BD4680BD00BF80400040824000408440004086400040884000408A4000408C4000408E40004090400040924000402B
:400B00009440004096400040984000409A400040BC1C00480041004000430040A14600400F01004900420040224200402042004025420040044000400640004008400040B4
:400B400009400040014000400B400040A2430040A1430040A043004080B483B000AF0F4B1B78FB710E4AFB7903F00703DBB213700C4AFB791B09DBB213700B4B08221A7024
:400B80000A4B80221A700A4B80221A70094B44221A7000BF0C37BD4680BC7047CF0100496E5800406F5800403D510040005B0040585B00407658004080B483B000AF034608
:400BC000FB71FB79012B0ED8FB79094A52F82330FA79074951F822201178FA790548825C0A43D2B21A7000BF0C37BD4680BC7047203600002836000080B483B000AF0346C4
:400C0000FB71FB79012B10D8FB790A4A52F82330FA79084951F822201178FA790648825CD243D2B20A40D2B21A7000BF0C37BD4680BC7047203600002836000080B500AF63
:400C400072B6314B61221A70FFF7A4FE2E4BC1221A702E4A2D4B1B78DBB243F00403DBB21370FFF7DDFD2A4B0A221A70294A294B1B78DBB243F00203DBB21370264A264BC0
:400C80001B78DBB243F00203DBB21370234A234B1B78DBB243F04003DBB21370204A204B1B78DBB243F01003DBB2137008221D491D48FFF79FFD0A221C491D48FFF79AFDF6
:400CC00008221C491C48FFF795FD0A221B491C48FFF790FD08221B491B48FFF78BFD1B4A1A4B1B78DBB243F00803DBB21370184B01221A70FFF730FF0E2208491548FFF752
:400D000079FD00BF80BD00BF00480040E8460040835800400350014013500140A0430040C24300408C1C004802510040941C0048C0510040A01C004812510040A81C004852
:400D400020510040B41C0048325100402243004004000840B043004080B500AF01F0ECFF03461B680C2B00D1FEE7FEE780B584B000AF78600F4B1A687B6813441A460E4BA6
:400D8000D31A802B09DC0B4B1B68FB60094B1A687B681344074A136007E001F0CDFF02460C2313604FF0FF33FB60FB6818461037BD4680BD1489FF1FE890FF1F80B586B050
:400DC00000AF224B7B61224B3B61204B7B6135E03B691B68FB603B695B68BB603B699B683B6000237B600CE0FB681A68BB681A60BB680433BB60FB680433FB607B68043360
:400E00007B607A683B689A42EED13B69DB683B6000237B6008E0BB6800221A60BB680433BB607B6804337B607A683B689A42F2D13B6910333B617B69013B7B617B69002B74
:400E4000C6D101F07FFFFFF779FAFEE701000000D037000080B582B000AF184B184A1A60184A184B1B6843F40073136000237B600FE07B68032B04D8134A7B6852F82330A5
:400E800000E0124B12497A6841F822307B6801337B607B682F2BECD90E4B1B78DAB20E4B1A700E4B0A4A1A60FFF7C8FE0C4B00221A6000BF0837BD4680BD00BF0CED00E032
:400EC0000004FA0514ED00E000000000590D00000080FF1FBC760040C480FF1F08ED00E0C080FF1F80B500AF084B1F221A7000F0BDF800F061F800F06DF8054B00221A70C2
:400F0000044B00221A7000BF80BD00BF896400408A6400408D64004080B582B000AF01F02BFD0346FB71124A114B1B78DBB243F02003DBB213700F4A0E4B1B78DBB243F048
:400F40001003DBB213700C4A0B4B1B78DBB243F01003DBB21370FB79184601F011FD00F01FF800F023F800BF0837BD4680BD00BF996400409A6400409D64004080B500AFAC
:400F8000064B1B78002B04D1FFF7ACFF034B01221A70FFF7C1FF00BF80BD00BFD489FF1F80B400AF00BFBD4680BC704780B400AF00BFBD4680BC704780B483B000AF044B30
:400FC0001B78FB71FB7918460C37BD4680BC70476A64004080B483B000AF044B1B78FB71FB7918460C37BD4680BC70476D64004080B483B000AF0346FB8000BF074B1B78DB
:40100000DBB203F00403002BF8D0054AFB88138000BF0C37BD4680BC704700BF6A6400404C64004080B483B000AF044B1B88FB80FB8818460C37BD4680BC70475C6400407F
:4010400080B483B000AF084B1B78DBB203F02003002B01D0012300E00023FB71FB7918460C37BD4680BC70476D64004080B582B000AF01E01A4B1B881A4B1B78DBB203F0AF
:401080002003002BF6D101F077FC0346FB71164A154B1B78DBB243F00103DBB21370124A114B1B78DBB223F00103DBB213700F4A0E4B1B78DBB243F00103DBB213700B4A6E
:4010C0000A4B1B78DBB223F00103DBB21370FB79184601F055FC00BF0837BD4680BD00BF5C6400406D6400409C6400409D64004080B483B000AF0346FB7101BE00BF0C3725
:40110000BD4680BC704700BF80B582B000AF786008E00C4B1B68184601F026FC7B68A3F500437B607B68B3F5004FF2D8064B1B687A6802FB03F3184601F016FC00BF083794
:40114000BD4680BD2489FF1F1C89FF1F80B582B000AF0346FB80FB88054A127802FB03F3184601F001FC00BF0837BD4680BD00BF2089FF1F80B584B000AF03463960FB7102
:401180000F4B1B68FB60FB791F2B02D90020FFF7AFFFFB7903F01F0310339B00FA6813441B68BB60FB7903F01F0310339B00FA6813443A681A60BB6818461037BD4680BD98
:4011C00008ED00E080B582B000AF03460A46FB711346BB71BB79072B02D90020FFF788FFFB791F2B02D90020FFF782FFFB7903F01F0303F1604303F56443BA795201D2B2A3
:401200001A7000BF0837BD4680BD00BF80B500AF064B1B78002B04D100F00AF8034B01221A7000F025F800BF80BD00BFD589FF1F80B400AF094B72221A70094B20221A70B9
:40124000084B06221A70084B47221A70074B00221A7000BFBD4680BC704700BF896500408865004028650040386500408764004080B582B000AF01F07FFB0346FB71114AF0
:40128000104B1B78DBB243F02003DBB213700E4A0D4B1B78DBB243F01003DBB213700B4A0A4B1B78DBB243F01003DBB2137000F04BF8FB79184601F063FB00BF0837BD46B2
:4012C00080BD00BF99650040986500409764004080B483B000AF0346FB7100BF074B1B78DBB203F00403002BF8D1054AFB79137000BF0C37BD4680BC704700BF676400404A
:401300004B64004080B584B000AF78600023FB810C4B1B78002B10D009E0FB897A6813441B781846FFF7D4FFFB890133FB81FB897A6813441B78002BEFD100BF1037BD4662
:4013400080BD00BFD589FF1F80B400AF094A094B1B78DBB243F00803DBB21370064A064B1B78DBB243F00803DBB2137000BFBD4680BC7047A2430040B243004080B582B078
:4013800002AF414B01221A70404B00221A70102000F0DAFD102000F0BDFE07211D20FFF711FF3B4B04221A703A4B00221A703A4B00221A70394A394B1B78DBB243F01803C2
:4013C000DBB21370364B00221A70364B00221A70354B00221A70354B0A221A70344B00221A70344B00221A70334B12221A70334B13221A70324B00221A70324B14221A70EC
:40140000012300930E2347F2E97248F66B51022000F0A0FB0223009310234FF4004249F2DA01002000F096FB0323009310234FF4004249F2DA01002000F08CFB042300938A
:4014400010234FF4004249F2DA01002000F082FB1D4A0D4B1B78DBB2013B1C499B000B449B7813701A4A084B1B78DBB2013B174931F823301380044B1B78DBB2184600F0D2
:4014800061F900BFBD4680BD2889FF1FD889FF1F96580040975800409E580040075B004093580040885B0040895B0040805800408158004083580040885800408958004051
:4014C0008D580040014E00400E4E0040E089FF1F0C4E004080B582B000AF01F04DFA0346FB71444B1B78BB71434A434B1B78DBB243F00103DBB213703F4A3F4B1B78DBB275
:4015000043F01003DBB213703C4A3C4B1B78DBB243F00103DBB21370384A384B1B78DBB243F01003DBB21370354A354B1B78DBB243F00203DBB21370324A324B1B78DBB2E6
:4015400043F00203DBB213702F4A2F4B1B78DBB243F00303DBB213700320FFF7F7FD284A274B1B78DBB223F00203DBB21370254A244B1B78DBB223F00203DBB21370234AFB
:40158000224B1B78DBB243F00603DBB21370204B7A221A701F4A1F4B1B78DBB243F00103DBB213701C4A1C4B1B78DBB243F00103DBB21370194A194B1B78DBB243F0010335
:4015C000DBB21370164A164B1B78DBB243F00103DBB21370134B4FF000521A60124B4FF000521A60FB79184601F0CAF900BF0837BD4680BD2889FF1FAA430040BA430040E5
:40160000F8460040F9460040915800407758004082580040A1430040B1430040A2430040B243004080E200E000E100E080B500AF084B1B78002B09D1074B1B78DBB2002B3A
:4016400001D1FFF79BFE034B01221A70FFF742FF00BF80BDDA89FF1FDB89FF1F80B400AF054A054B1B78DBB243F00103DBB2137000BFBD4680BC7047004E004080B485B043
:4016800000AF0346FB710D4B1B78DBB2002B03D00B4B1B78FB7305E00A4B1B78DBB203F00103FB73FB7B012B02D0FB79002BEAD0FB7B18461437BD4680BC7047D989FF1FD8
:4016C000D889FF1F014E004080B483B000AF174B1B78DBB203F003037B717B79012B03D8134B1B88FB8011E0114B1B78DBB2FB80104B1B78DBB29BB21B029AB2FB881343F6
:40170000FB807B79032B01D10B4B1B780B4B1B78DBB2002B02D00A4B00221A70B7F9063018460C37BD4680BC704700BF144E0040104E0040114E0040124E0040D989FF1FA2
:40174000D889FF1F80B582B000AF0346FB71C34B00221A70FB79012B66D1C14B38221A70C04B05221A70C04B07221A70BF4B00221A70BF4B00221A70BE4B2D221A70BE4BCD
:4017800000221A70BD4B00221A70BD4B00221A70BC4B01221A70BC4B14221A70BB4B05221A70BB4B16221A70BA4B00221A70BA4B44221A70B94B48221A70B94B01221A70CC
:4017C000B84B01221A70B84B11221A70B74B19221A70B74B97221A70522000F073FAB54B58221A70B44B00221A70B44B05221A70B34B02221A70B34B00221A70B24B0022CA
:401800001A70002000F0CEFAB04B40F6CD421A6001210B2000F0DAFA0121672000F0BCFBAB491D20FFF7A6FCFB79022B66D18C4B38221A708B4B04221A708B4B06221A70C1
:401840008A4B00221A708A4B00221A70894B3F221A70894B00221A70884B00221A70884B00221A70874B01221A70874B50221A70864B27221A70864B2C221A70854B00229D
:401880001A70854B55221A70844B5A221A70844B05221A70834B01221A70834B11221A70824B19221A70824B97221A70442000F009FA804B58221A707F4B00221A707F4B6A
:4018C00005221A707E4B02221A707E4B00221A707D4B00221A70002000F064FA7B4B4FF47A421A6001210B2000F070FA01214A2000F052FB77491D20FFF73CFCFB79032BED
:4019000066D1574B38221A70564B04221A70564B06221A70554B00221A70554B00221A70544B3F221A70544B00221A70534B00221A70534B00221A70524B01221A70524B5E
:4019400050221A70514B27221A70514B2C221A70504B00221A70504B55221A704F4B5A221A704F4B05221A704E4B01221A704E4B11221A704D4B19221A704D4B97221A70E6
:40198000442000F09FF94B4B58221A704A4B00221A704A4B05221A70494B02221A70494B00221A70484B00221A70002000F0FAF9464B4FF47A421A6001210B2000F006FA0F
:4019C00001214A2000F0E8FA43491D20FFF7D2FBFB79042B40F0A980214B38221A70214B04221A70204B06221A70204B00221A701F4B00221A701F4B3F221A701E4B00226B
:401A00001A701E4B00221A701D4B00221A701D4B01221A701C4B50221A701C4B27221A701B4B2C221A701B4B00221A701A4B55221A701A4B5A221A70194B05221A70194BA7
:401A400001221A70184B11221A70184B19221A70174B97221A70442040E000BFD989FF1F004E0040024E0040034E0040044E0040054E0040064E0040084E0040094E004074
:401A80000A4E0040144E0040845800408558004086580040875800408A5800408B5800408C5800408E5800408F580040905800409158004094580040955800409A580040E4
:401AC0009B5800409C5800409D580040D490FF1F411D00004D1D0000591D000000F0F2F8144B58221A70144B00221A70134B05221A70134B02221A70124B00221A70124BC1
:401B000000221A70002000F04DF9104B4FF47A421A6001210B2000F059F901214A2000F03BFA0B491D20FFF725FB00BF0837BD4680BD00BF94580040955800409A58004060
:401B40009B5800409C5800409D580040D490FF1F651D000090B587B000AF0446084611461A462346FB710346BB800B467B801346BB7197F82830002B00F08B8097F828302D
:401B8000042B00F28680FB79013B092B4AD801A252F823F0BD1B0000251C0000251C0000BD1B0000251C0000251C0000D71B0000F11B0000251C00000B1C0000BB790F2B70
:401BC00004D9374B1B78DBB2FB752EE0354B1B78DBB2FB7529E0BB790F2B04D9324B1B78DBB2FB7521E0314B1B78DBB2FB751CE0BB790F2B04D92E4B1B78DBB2FB7514E026
:401C00002C4B1B78DBB2FB750FE0BB790F2B04D9294B1B78DBB2FB7507E0284B1B78DBB2FB7502E00023FB7500BFBA8897F917305B0113443B617B883A6902FB03F3FB60E5
:401C4000FB68DB0BBB82BB790D2B12D8BA8ABB79C3F10E0342FA03F3BB8297F82830013BBA790132D1B2164A9B0013440A469A7007E097F82830013B114A9B0013440F229C
:401C80009A7097F82830013B0D49BA8A21F8232002E00020FFF72CFA00BF1C37BD4690BD180100491C010049190100491D0100491A0100491E0100491B0100491F01004955
:401CC000E089FF1F80B584B000AF0346FB7100F053FE0346FB73174A164B1B78DBB243F00303DBB21370144A134B1B78DBB243F00303DBB21370114AFB7913700320FFF7DD
:401D000025FA0C4A0B4B1B78DBB223F00303DBB21370094A084B1B78DBB223F00303DBB21370FB7B184600F02BFE00BF1037BD4680BD00BFF8460040F94600409258004087
:401D400080B400AF00BFBD4680BC704780B400AF00BFBD4680BC704780B400AF00BFBD4680BC704780B400AF00BFBD4680BC704780B582B000AF0023FB7106E0FB791846A6
:401D8000FEF73AFFFB790133FB71FB79012BF5D9034BFF221A7000BF0837BD4680BD00BF2989FF1F80B582B000AF0346FB71FFF7DFFFFB791846FEF7FFFE034AFB79137006
:401DC00000BF0837BD4680BD2989FF1F80B584B000AF03460A46FB8013467B7100F0CEF80346FB7300F0A4F80346BB81FA88BB899A4200F08880464B1B78DBB203F00103A4
:401E0000FB72FB7B002B20D1BB89002B02D0FB88002B1AD1BB89002B0BD13E4AFB8813803D4A3D4B1B78DBB223F04003DBB2137069E0394A384B1B78DBB243F04003DBB2D9
:401E40001370344AFB8813805DE0FB7A002B33D0324B00221A70324B01221A70314B00221A70314A304B1B78DBB203F07F03DBB21370294B1B78DBB203F00803002B02D0C6
:401E8000FB88002B18D1294ABB891380234B07221A7000BF214B1B78DBB203F00103002BF8D11B4A1A4B1B78DBB223F00103DBB213701A4B00221A70154B1B78DBB203F055
:401EC0000103002B13D0194AFB881380134A7B79002B01D0032300E00123137000BF0F4B1B78DBB203F00103002BF8D10BE0094AFB8813800649064B1B78DAB2FB7A13435B
:401F0000DBB20B70FFE700BF1037BD4680BD00BFA24300408040004082400040014000401040004014400040084000400240004080B400AF034B1B889BB21846BD4680BC1A
:401F4000704700BF8040004080B483B000AF0346FB710949084B1B78DBB25AB297F9073023F007035BB213435BB2DBB20B7000BF0C37BD4680BC70478240004080B400AF16
:401F8000044B1B78DBB203F00703DBB21846BD4680BC70478240004080B584B000AF03460A46FB8013467B7100F0CEF80346FB7300F0A4F80346BB81FA88BB899A4200F051
:401FC0008880464B1B78DBB203F00103FB72FB7B002B20D1BB89002B02D0FB88002B1AD1BB89002B0BD13E4AFB8813803D4A3D4B1B78DBB223F04003DBB2137069E0394A0E
:40200000384B1B78DBB243F04003DBB21370344AFB8813805DE0FB7A002B33D0324B00221A70324B01221A70314B00221A70314A304B1B78DBB203F07F03DBB21370294B79
:402040001B78DBB203F00803002B02D0FB88002B18D1294ABB891380234B07221A7000BF214B1B78DBB203F00103002BF8D11B4A1A4B1B78DBB223F00103DBB213701A4B97
:4020800000221A70154B1B78DBB203F00103002B13D0194AFB881380134A7B79002B01D0032300E00123137000BF0F4B1B78DBB203F00103002BF8D10BE0094AFB88138004
:4020C0000649064B1B78DAB2FB7A1343DBB20B70FFE700BF1037BD4680BD00BFA14300400041004002410040014000401440004010400040084000400240004080B400AFA9
:40210000034B1B889BB21846BD4680BC704700BF0041004080B483B000AF0346FB710949084B1B78DBB25AB297F9073023F007035BB213435BB2DBB20B7000BF0C37BD46D0
:4021400080BC70470241004080B400AF044B1B78DBB203F00703DBB21846BD4680BC70470241004080B500AF00F098F9044800F065F9072000F074F900F084F900BF80BD4A
:402180008521000080B500AF012000F001FBFEF757FF0346002B15D0FEF744FF0346C3F30D03934A1360924B1B68002B00DA1F335B111A468F4B53F822208D4B1B681344B1
:4021C0008B4A13608C4B1B889BB21846FEF710FF8A4B1B688A4A1360854B1A68894B1B68D31A42F2107293420CDD814B1A68854B1B6803F58043D21A804B1B6813447F4A0F
:40220000136029E07A4B1A687E4B1B68D31A7E4A934217DA764B1A687A4B1B68D31A03F580427A4B1340002B05DA013B6FEA83436FEA934301331A46704B1B6813446F4A54
:40224000136009E06D4B1A68694B1B681A446D4B1B68D31A694A1360654B1B68694A13606B4B1B68632B04DC694B1B680133684A1360684B1A6813469B0099185F4B1A684F
:4022800013465B0013440B44002B00DA0733DB101A46604B1A60604B1A6813461B019A1A564B1B681344002B00DA0F331B111A46594B1A60564B1B68642B7CD1574B1B682E
:4022C000591C574B83FB01239A10CB17D21A13469B0013445B00CA1A504B1A60514B01221A70514B1A684B4B1B684FF4486101FB03F3002B02DA03F57F533F339B13D31AD2
:402300004A4A13604A4B1A68484B1B68D31A494A1360484B1B680F2B03DD464B0F221A6008E0444B1B6813F10F0F03DA414B6FF00E021A603F4B1B68002B19DD012000F05D
:4023400023FB0120FEF702FF00F0B0F9394B1B68394A52F82330184600F00CFA00F08EF9344B1A68304B1B6813442F4A136039E0304B1B68002B35DA002000F005FB0120D9
:40238000FEF7E4FE2B4B1B685B422A4A136000F08DF9284B1B68284A52F82330184600F0E9F900F06BF9234B1B681F4A1268D31A1D4A136016E0114B1B684FF4486202FB70
:4023C00003F3002B02DA03F57F533F339B131A46154B1A60094B1B680E4A1360074B1B680D4A1360002000F0D3F900BF80BD00BFB890FF1F1481FF1FCC80FF1FC890FF1FEB
:40240000F489FF1FF089FF1FF0D8FFFFFF3F0080D890FF1FB089FF1FB489FF1FDC90FF1F67666666C490FF1FD090FF1FCC90FF1FAC89FF1FC489FF1FD080FF1F80B485B08C
:4024400000AF7860054B1B68FB60FB6840337A681A6000BF1437BD4680BC704708ED00E080B483B000AF0346FB71054AFB795B01DBB2137000BF0C37BD4680BC704700BFEF
:4024800000E400E080B400AF034B01221A6000BFBD4680BC704700BF00E100E080B400AF034B01221A6000BFBD4680BC704700BF80E100E080B500AF214A214B1B78DBB2F7
:4024C00003F00103DBB213701E4A1E4B1B78DBB223F00303DBB213701B4A1B4B1B78DBB223F03003DBB21370174A174B1B78DBB243F03003DBB21370134A134B1B78DBB246
:4025000023F00F03DBB213700F4A0F4B1B78DBB243F00F03DBB213700C4A0C4B1B78DBB243F00103DBB21370D12000F057F8D12000F066F8002000F041F800BF80BD00BFB7
:40254000004F0040024F00400B4F0040014F004080B400AF0D4A0D4B1B78DBB243F00103DBB213700A4A0A4B1B78DBB243F00103DBB21370074A074B1B78DBB243F001030E
:40258000DBB2137000BFBD4680BC7047A3430040B3430040004F004080B500AF064B1B78002B04D1FFF786FF034B01221A70FFF7CFFF00BF80BD00BFF889FF1F80B483B0A8
:4025C00000AF0346FB71044AFB79137000BF0C37BD4680BC704700BF034F004080B485B000AF0346FB80FB88FB81044AFB89138000BF1437BD4680BC704700BF044F004057
:4026000080B483B000AF0346FB80044AFB88138000BF0C37BD4680BC704700BF064F004080B483B000AF0346FB71044AFB79137000BF0C37BD4680BC704700BF7264004033
:4026400080B400AF034B1B78DBB21846BD4680BC704700BF6864004080B500AF064B1B78002B04D100F01AF8034B01221A7000F005F800BF80BD00BFF989FF1F80B500AFF9
:40268000054A054B1B78DBB243F00103DBB2137000F01CF800BF80BD7564004080B500AF002000F047F800BF80BD00BF80B500AF054A054B1B78DBB223F00103DBB2137043
:4026C00000F01EF800BF80BD7564004080B582B000AF00F051F90346FB71084A074B1B78DBB243F01003DBB21370FB79184600F047F900BF0837BD4680BD00BF9564004068
:4027000080B582B000AF00F037F90346FB71084A074B1B78DBB223F01003DBB21370FB79184600F02DF900BF0837BD4680BD00BF9564004080B483B000AF0346FB710C4A75
:402740000B4B1B78DBB223F00703DBB213700849074B1B78DAB2FB7903F00703DBB21343DBB20B7000BF0C37BD4680BC704700BF8564004080B483B000AF7860034A7B689A
:40278000136000BF0C37BD4680BC70470264004080B485B000AF0346FB71094B1B78DBB203F07F03FB730649FB79DB01DAB2FB7B1343DBB20B7000BF1437BD4680BC7047E5
:4027C0003051004080B582B000AF1D4B1B78DBB223F00703FB711A4AFB7943F00103DBB21370174B1B78DBB223F00303FB71144AFB79137000F0AAF86FF0030000F08AF810
:402800006FF0030000F06EF8002000F04FF800F05DF8022000F08CF800F0AEF80346BB71084A084B1B78DBB243F01003DBB21370BB79184600F0A4F800BF0837BD4680BD2C
:40284000746400409464004080B400AF054A054B1B78DBB263F07F03DBB2137000BFBD4680BC70477464004080B500AF064B1B78002B04D1FFF7A6FF034B01221A70FFF760
:40288000E3FF00BF80BD00BFFA89FF1F80B400AF054A054B1B78DBB203F07F03DBB2137000BFBD4680BC70477464004080B483B000AF0346FB71044AFB79137000BF0C37D4
:4028C000BD4680BC704700BF8464004080B400AF034B1B78DBB21846BD4680BC704700BF6464004080B483B000AF7860034A7B68136000BF0C37BD4680BC7047076400405B
:4029000080B400AF024B1B681846BD4680BC70474764004080B483B000AF7860034A7B68136000BF0C37BD4680BC70472764004080B483B000AF7860034A7B68136000BF01
:402940000C37BD4680BC70473764004080B500AF01E0FFF7D5FFFFF7B9FF034603F04003002BF6D100BF80BD0230800803D000BF01380046FCD17047EFF3108072B67047F9
:4029800080F31088704700BF80B483B000AF0346FB71044AFB79137000BF0C37BD4680BC704700BF7C6400407BB972B90029BEBF00204FF0004106E008BF00281CBF6FF0FB
:4029C00000414FF0FF3000F0B5B9ADF1080C6DE904CE002909DB002B1ADB00F035F8DDF804E0DDE9022304B07047404261EB4101002B1BDB00F028F8DDF804E0DDE90223B2
:402A000004B0404261EB4101524263EB43037047524263EB430300F017F8DDF804E0DDE9022304B0404261EB41017047524263EB430300F009F8DDF804E0DDE9022304B03C
:402A4000524263EB430370472DE9F04F8C460C460546099E002B4FD18A4217466BD9B2FA82FEBEF1000F0BD0CEF1200520FA05F501FA0EF345EA030C02FA0EF700FA0EF55F
:402A8000390CBCFBF1F0BAB201FB10C300FB02F84FEA154C4CEA0344A04509D9E41900F1FF3380F02881A04540F2258102383C44C8EB0404B4FBF1F301FB134C03FB02F2E0
:402AC000ACB244EA0C418A4209D9C91903F1FF3480F00F818A4240F20C81023B39448A1A43EA00400021002E63D022FA0EF2002386E80C00BDE8F08F8B4207D9002E56D090
:402B0000002186E811000846BDE8F08FB3FA83F1002940F09380A34202D3824200F2FE80851A64EB03039C460120002E41D086E82010BDE8F08F12B90127B7FBF2F7B7FAD1
:402B400087FEBEF1000F36D1E41B4FEA17481FFA87F90121B4FBF8F308FB134409FB03F24FEA154C4CEA0444A24207D9E41903F1FF3002D2A24200F2D3800346A41AB4FB1D
:402B8000F8F008FB104809FB00F9ACB244EA0842914507D9D21900F1FF3402D2914500F2BA802046C9EB020240EA03409BE731463046BDE8F08F07FA0EF7CEF1200C24FA37
:402BC0000CF34FEA1748B3FBF8FA1FFA87F908FB1A3520FA0CFC04FA0EF40AFB09FB4CEA040C4FEA1C4242EA05439B4500FA0EF50AD9DB190AF1FF3280F08B809B4540F2CA
:402C00008880AAF1020A3B44CBEB0303B3FBF8F008FB103300FB09F41FFA8CFC4CEA03439C4207D9DB1900F1FF326ED29C426CD902383B441C1B40EA0A418BE7C1F1200ECB
:402C40008B4022FA0EFC4CEA030C24FA0EF74FEA1C49B7FBF9FA1FFA8CF309FB1A7720FA0EF88C400AFB03F548EA04044FEA144848EA0747BD4202FA01F200FA01FB09D98D
:402C800017EB0C070AF1FF3041D2BD423FD9AAF1020A67447F1BB7FBF9F509FB157705FB03F3A4B244EA0747BB4208D917EB0C0705F1FF3027D2BB4225D9023D674445EAA2
:402CC0000A40A0FB0289FF1A4F4545464C4614D329D066B3BBEB050367EB040707FA0EFECB40CF404EEA030386E888000021BDE8F08F2346F3E61846DAE6B8EB020569EB98
:402D00000C040138E5E70546D9E7104692E78246C0E7924678E702383A4443E7084604E7023B3C442AE7C345E7D33C46D1E73146BDE8F08F704700BF014B1868704700BFC6
:402D40008C89FF1F0E4B70B51E460E4C0025E41AA410A54204D056F8253098470135F8E700F024FD084B094C1E46E41AA4100025A54204D056F8253098470135F8E770BD48
:402D8000B8370000B8370000B8370000C037000010B5431E0A44914204D011F8014B03F8014FF8E710BD00000EB400B54FF402719CB0ADF814106FF00041049107914FF694
:402DC000FF711DAB02900690084853F8042BADF81610006802A9019300F064F8029B00221A701CB05DF804EB03B070478C89FF1F2DE9F0478E6882469E420C469146984603
:402E00003ED88A8912F4906F3AD02568096902236F1A656905EB450595FBF3F57B1C43449D4238BF1D4653050FD5294600F040FB064698B13A462169FFF7AAFFA38923F47F
:402E4000906343F08003A38113E02A4600F08EFB064670B92169504600F0DEFA0C23CAF80030A3894FF0FF3043F04003A381BDE8F08726613E44266046466561ED1BA560ED
:402E8000464528BF464649463246206800F0A8FAA36800209B1BA36023681E442660BDE8F08700002DE9F04F9DB003938B8980461C060D4616460DD50B695BB9402100F0E2
:402EC000F7FA2860286118B90C23C8F80030CDE040236B610023099320238DF82930DFF89CB130238DF82A3037463C4614F8013B1BB9B7EB060910D003E0252BF9D02746B9
:402F0000F3E74B46324629464046FFF771FF013000F0A780099B4B4409933B78002B00F0A08000234FF0FF3204930793059206938DF853301A930126052221784E4800F038
:402F400041FA671C049B38B14B4A3C46801A06FA00F018430490EFE7D90644BF20228DF853201A0744BF2B228DF8532022782A2A03D0079A00210A200BE0039A111D126843
:402F80000391002A10DA524243F00200079204900BE027463B780134303B092B03D800FB02320121F5E701B107923B782E2B1ED17B782A2B0AD1039B02371A1D1B680392FD
:402FC000002BB8BF4FF0FF33059310E0002319460593781C0A2407463A780130303A092A03D804FB01210123F5E703B1059103223978224800F0E6F940B14023CBEB00002E
:4030000003FA00F0049B013718430490397806221B487E1C8DF8281000F0D4F988B1194B33B9039B073323F007030833039314E003AB00932A46144B04A94046AFF30080E5
:4030400007E003AB00932A460F4B04A9404600F093F8B0F1FF3F824603D0099B5344099342E7AB895B0601D4099801E04FF0FF301DB0BDE8F08F00BF763700007C370000CC
:403080008037000000000000F12D00002DE9F04791461F460A698B6806469342B8BF1346C9F8003091F843200C46DDF8208012B10133C9F800302368990642BFD9F80030A3
:4030C0000233C9F80030256815F0060510D104F1190A07E00123524639463046C04701301AD00135E368D9F800209B1A9D42F1DB94F843302268003318BF012392060FD555
:40310000E118302081F843005A1C94F845102244023382F8431003E04FF0FF30BDE8F08704F1430239463046C0470130F4D02268D9F80050E36802F00602042A08BF5D1BD6
:403140002269A3680CBF25EAE57500259342C4BF9B1AED184FF000091A344D4509D00123224639463046C0470130D5D009F10109F3E70020BDE8F0872DE9F04317460A7EA7
:4031800085B06E2A984606460C460C9B01F1430E00F0AE8011D8632A22D009D8002A00F0BB80582A40F0CA8081F84520834955E0642A1ED0692A1CD0C0E0732A00F0B080ED
:4031C00009D86F2A2ED0702A40F0B8800A6842F020020A603EE0752A24D0782A3AD0ADE01A6801F14205111D1960136884F84230A8E021681A6811F0800F02D0111D1960D4
:4032000008E011F0400F02F10401196002D0B2F9003000E01368002B3CDA2D225B4284F8432037E021681A6811F0800F02D0111D196007E011F0400F02F10401196001D02D
:40324000138800E01368227E5C496F2A14BF0A2208221BE078225A4984F845202268186812F0800F00F104051D6003D1550601D5038800E00368D00744BF42F0200222609B
:403280001BB9226822F0200222601022002084F8430001E049490A226568002DA56008DB206820F0040020602BB9002D7DD175460CE0002B79D07546B3FBF2F002FB103347
:4032C000CB5C05F8013D03460028F5D1082A0BD12368DA0708D5236962689A42DEBF302305F8013C05F1FF35C5EB0E0323612EE008681A6810F0800F496903D0101D18605A
:40330000136808E010F0400F02F104001860136801D0198000E0196000232361754616E01A68111D1960156800216268284600F049F808B1401B6060636804E004F14205E7
:4033400084F8422001232361002384F84330CDF800803B4603AA21463046FFF797FE013002D14FF0FF3026E023692A4639463046C0470130F5D023689B0710D5002504F148
:40338000190907E001234A4639463046C0470130E7D00135E368039A9B1A9D42F2DBE068039B9842B8BF184605E00B7804F1420584F842308AE705B0BDE8F08387370000CA
:4033C0009837000010B5C9B202449042034605D01C7801308C42F8D1184610BD002010BD884210B501EB020301D8421E0BE09842FBD28118D21AD34204D013F8014D01F809
:40340000014DF8E710BD994204D011F8014B02F8014FF8E710BD000038B50546002944D051F8043C0C1F002BB8BFE41800F0D4F81E4A1368114613B96360146030E0A342E3
:403440000DD92268A018834201BF18685B681218226063600C6023E0A24203D813465A68002AF9D118681918A1420BD12168014458188242196013D11068526801441960F1
:403480005A600DE002D90C232B6009E021686018824201BF106852680918216062605C602846BDE8384000F098B838BD008AFF1F70B5CD1C25F0030508350C2D38BF0C25DF
:4034C000002D064601DBA94202D90C23336046E000F082F8234B1C681A462146A1B10B685B1B0ED40B2B03D90B60CC18CD501EE08C420BBF63684B681360636018BF0C4698
:4035000015E00C464968E9E7174C23681BB9304600F052F820602946304600F04DF8431C18D0C41C24F00304A0420DD12560304600F053F804F10B00231D20F00700C31A4B
:403540000ED05A42E25070BD211A304600F034F80130EBD10C233360304600F03EF8002070BD00BF008AFF1FFC89FF1FF8B5074615460E4621B91146BDE8F840FFF798BFFF
:403580001AB9FFF749FF2846F8BD00F027F885420ED929463846FFF78BFF044650B131462A46FFF7F5FB31463846FFF735FF01E03046F8BD2046F8BD38B5064C00230546A2
:4035C00008462360FDF7D2FB431C02D1236803B12B6038BDE090FF1F7047704751F8040C0028BEBF091851F8043CC018043870470000000054F4FF7F01000000256C642CF1
:40360000256C642C256C642C256C642C256C642C256C642C256C642C256C640A00000000035B00402443004040000000280000003000000038000000400000004800000028
:40364000480000004800000048000000D089FF1FD089FF1FD089FF1FD089FF1FD089FF1FD089FF1FD089FF1FD089FF1FD089FF1F00000048080000481000004820000048EB
:403680002C0800484C080048180000482C000048AC0000482C010048AC0100482C020048AC0200482C030048AC0300482C040048AC0400482C050048AC0500482C0600488A
:4036C000AC0600482C070048AC0700486C0800487C0800488C0800480C0900488C0900480C0A00488C0A00480C0B00488C0B00480C0C00488C0C00480C0D00488C0D0048C0
:403700000C0E00488C0E00480C0F00488C0F00480C1000488C1000480C1100488C1100480C1200488C1200480C1300488C1300480C1400488C1400480C1500488C15004831
:403740000C1600488C1600480C1700488C1700480C1800488C1800480C1900488C1900480C1A00488C1A00480C1B00488C1B00480C1C00484300232D302B2000686C4C0095
:403780006566674546470030313233343536373839414243444546003031323334353637383961626364656600000000F8B500BFF8BC08BC9E46704705030000550E000017
:4037C000F8B500BFF8BC08BC9E467047E1020000E0370000C880FF1FC80800005807000000000000FF7F000000000000020000000A0000002A000000AA000000AA020000B1
:40380000AA0A0000AA2A0000AAAA0000AAAA0200AAAA0A00AAAA2A00AAAAAA00AAAAAA02AAAAAA0AAAAAAA2AAAAAAAAA000000000000000000000000FDFFFFFFFDFFFFFFB0
:40384000FDFFFFFFFEFFFFFFFEFFFFFFFAFFFFFFFAFFFFFFFAFFFFFFFDFFFFFFFDFFFFFFFBFFFFFFFBFFFFFFFBFFFFFFFBFFFFFFFBFFFFFFF8FFFFFFF8FFFFFFF8FFFFFFC8
:40388000FAFFFFFFFAFFFFFFFAFFFFFFF8FFFFFFF8FFFFFFF9FFFFFFF9FFFFFFF9FFFFFFF6FFFFFFF6FFFFFFF8FFFFFFF8FFFFFFF8FFFFFFF5FFFFFFF5FFFFFFF6FFFFFFBB
:4038C000F6FFFFFFF6FFFFFFF3FFFFFFF3FFFFFFF5FFFFFFF5FFFFFFF5FFFFFFF4FFFFFFF4FFFFFFF4FFFFFFF4FFFFFFF4FFFFFFF1FFFFFFF1FFFFFFF1FFFFFFF4FFFFFFBC
:40390000F4FFFFFFF2FFFFFFF2FFFFFFF2FFFFFFF4FFFFFFF4FFFFFFF1FFFFFFF1FFFFFFF1FFFFFFF3FFFFFFF3FFFFFFF2FFFFFFF2FFFFFFF2FFFFFFF3FFFFFFF3FFFFFF90
:40394000F3FFFFFFF1FFFFFFF1FFFFFFF3FFFFFFF3FFFFFFF3FFFFFFF2FFFFFFF2FFFFFFF3FFFFFFF3FFFFFFF3FFFFFFF1FFFFFFF1FFFFFFF4FFFFFFF4FFFFFFF4FFFFFF4E
:40398000F4FFFFFFF4FFFFFFF4FFFFFFF5FFFFFFF5FFFFFFF3FFFFFFF3FFFFFFF3FFFFFFF6FFFFFFF6FFFFFFF5FFFFFFF5FFFFFFF5FFFFFFF6FFFFFFF6FFFFFFF4FFFFFFED
:4039C000F4FFFFFFF4FFFFFFF7FFFFFFF7FFFFFFF7FFFFFFF7FFFFFFF7FFFFFFF8FFFFFFF8FFFFFFF8FFFFFFF7FFFFFFF7FFFFFFF9FFFFFFF9FFFFFFF9FFFFFFF9FFFFFF82
:403A0000F9FFFFFFFBFFFFFFFBFFFFFFFBFFFFFFF9FFFFFFF9FFFFFFFCFFFFFFFCFFFFFFFCFFFFFFFCFFFFFFFCFFFFFFFCFFFFFFFCFFFFFFFCFFFFFFFBFFFFFFFBFFFFFF04
:403A4000FBFFFFFFFDFFFFFFFDFFFFFFFEFFFFFFFEFFFFFFFEFFFFFFFFFFFFFFFFFFFFFFFDFFFFFFFDFFFFFFFDFFFFFF000000000000000000000000000000000000000083
:403A800001000000010000000100000000000000000000000200000002000000020000000200000002000000040000000400000004000000020000000200000005000000E4
:403AC0000500000005000000040000000400000006000000060000000600000005000000050000000500000008000000080000000700000007000000070000000900000065
:403B0000090000000800000008000000080000000B0000000B0000000A0000000A0000000A0000000B0000000B0000000A0000000A0000000A0000000C0000000C000000E4
:403B40000C0000000B0000000B0000000D0000000D0000000D0000000B0000000B0000000D0000000D0000000D0000000C0000000C0000000D0000000D0000000D00000080
:403B80000B0000000B0000000B0000000E0000000E0000000C0000000C0000000C0000000E0000000E0000000B0000000B0000000B0000000C0000000C0000000B00000044
:403BC0000B0000000B0000000C0000000C0000000900000009000000090000000B0000000B0000000B00000009000000090000000A0000000A0000000A0000000700000024
:403C00000700000008000000080000000800000007000000070000000600000006000000060000000400000004000000060000000600000006000000030000000300000025
:403C400003000000020000000200000000000000000000000000000001000000010000000000000000000000000000000000000000000000FDFFFFFFFDFFFFFFFDFFFFFF4D
:403C8000FEFFFFFFFEFFFFFFFEFFFFFFFCFFFFFFFCFFFFFFFCFFFFFFFCFFFFFFFCFFFFFFF9FFFFFFF9FFFFFFFAFFFFFFFAFFFFFFFAFFFFFFF7FFFFFFF7FFFFFFF7FFFFFF89
:403CC000F7FFFFFFF7FFFFFFF4FFFFFFF4FFFFFFF6FFFFFFF6FFFFFFF6FFFFFFF4FFFFFFF4FFFFFFF4FFFFFFF5FFFFFFF5FFFFFFF2FFFFFFF2FFFFFFF2FFFFFFF3FFFFFFAD
:403D0000F3FFFFFFF2FFFFFFF2FFFFFFF2FFFFFFF2FFFFFFF2FFFFFFEFFFFFFFEFFFFFFFEFFFFFFFF1FFFFFFF1FFFFFFEFFFFFFFEFFFFFFFEFFFFFFFF0FFFFFFF0FFFFFFAA
:403D4000F0FFFFFFEDFFFFFFEDFFFFFFEFFFFFFFEFFFFFFFEFFFFFFFEEFFFFFFEEFFFFFFEFFFFFFFEFFFFFFFEFFFFFFFECFFFFFFECFFFFFFEFFFFFFFEFFFFFFFEFFFFFFF8E
:403D8000EDFFFFFFEDFFFFFFEDFFFFFFEFFFFFFFEFFFFFFFECFFFFFFECFFFFFFECFFFFFFEFFFFFFFEFFFFFFFEEFFFFFFEEFFFFFFEEFFFFFFEEFFFFFFEEFFFFFFECFFFFFF5A
:403DC000ECFFFFFFECFFFFFFEEFFFFFFEEFFFFFFEDFFFFFFEDFFFFFFEDFFFFFFEFFFFFFFEFFFFFFFEFFFFFFFECFFFFFFECFFFFFFEFFFFFFFEFFFFFFFEFFFFFFFEFFFFFFF17
:403E0000EFFFFFFFF0FFFFFFF0FFFFFFF0FFFFFFEEFFFFFFEEFFFFFFF0FFFFFFF0FFFFFFF0FFFFFFF0FFFFFFF0FFFFFFF1FFFFFFF1FFFFFFF1FFFFFFEFFFFFFFEFFFFFFFB6
:403E4000EFFFFFFFF1FFFFFFF1FFFFFFF1FFFFFFF1FFFFFFF1FFFFFFF2FFFFFFF2FFFFFFF1FFFFFFF1FFFFFFF1FFFFFFF4FFFFFFF4FFFFFFF3FFFFFFF3FFFFFFF3FFFFFF56
:403E8000F5FFFFFFF5FFFFFFF5FFFFFFF4FFFFFFF4FFFFFFF6FFFFFFF6FFFFFFF6FFFFFFF6FFFFFFF6FFFFFFF8FFFFFFF8FFFFFFF8FFFFFFF5FFFFFFF5FFFFFFF9FFFFFFD2
:403EC000F9FFFFFFF9FFFFFFF8FFFFFFF8FFFFFFFAFFFFFFFAFFFFFFFAFFFFFFF9FFFFFFF9FFFFFFF9FFFFFFFCFFFFFFFCFFFFFFFBFFFFFFFBFFFFFFFBFFFFFFFDFFFFFF51
:403F0000FDFFFFFFFCFFFFFFFCFFFFFFFCFFFFFFFFFFFFFFFFFFFFFFFEFFFFFFFEFFFFFFFEFFFFFF0000000000000000FEFFFFFFFEFFFFFFFEFFFFFF0000000000000000C2
:403F4000000000000000000000000000010000000100000001000000000000000000000002000000020000000200000001000000010000000300000003000000030000002D
:403F800001000000010000000100000003000000030000000200000002000000020000000300000003000000020000000200000002000000030000000300000002000000DE
:403FC00002000000020000000300000003000000000000000000000000000000030000000300000003000000010000000100000002000000020000000200000000000000A6
:40400000000000000100000001000000010000000000000000000000000000000000000000000000FFFFFFFFFFFFFFFFE890FF1F006CDC0280BB0000300000000000C05D1D
:4040400001FF000000000000000000000000000000000000000000000000000000000000000000007437000000000000000000000000000000000000000000000000000095
:404080000000000000000000000000000000000000000000000000000000000000000000000000002C89FF1F0000000000000000000000000000000000000000000000002D
:4040C00000000000000000000000000000000000000000000000000000000000000000000000000000000000000000000000000000000000000000000000000000000000C0
:40410000000000000000000000000000000000000000000000000000000000000000000000000000000000000000000000000000000000000000000000000000000000007F
:40414000000000000000000000000000000000000000000000000000000000000000000000000000000000000000000000000000000000000000000000000000000000003F
:4041800000000000000000000000000000000000000000000000000000000000000000000000000000000000000000000000000000000000000000000000000000000000FF
:020000040003F7
:0200000480007A
:40000000A0680000000000001A020000000000000280000000000000030000C000000000008000000000000000004B00000000000000000000000000000300000002000087
:4000400000030000000000000000000000010000000000000000000000000000000000030000000000080000000000040004000000000B0004FFFFFFEF5570481C00000045
:400080000000080000040404009400010008000800080008500A40A8C00040A80000000000000000000000000000000000000000000000000000000000000000000000008D
:4000C0000000000101000000000000000000000000000000000001000000000001000000000100000000000000000100000400000000000000FFFFFFEF5572481C000000DF
:400100000000000004040404100400010008000800080008500A40A8C00040A80000000000000000000000000000000000000000000000000203000C01000008000A020466
:40014000000000000000000000000000020300040400000501000000000300040600000F010000002200000800001000000400000000000000FFFFFFEF5572481C0080007A
:400180000F00000004040404331400010008000800080008500A40A8C00040A8000000000000000000000000000000000000000000000000000000000000000000000000CE
:4001C000000000000000000000000000000000000000000000000000000000000000000000000000000000000000000000040000000D0ECF35FFFFFFEA55F2481C00010049
:400200000000000000000404004400010008000800080008500A40A8C00040A800000000000000000000000000000000000000000000000000000000000000000000000067
:40024000000000000000000000000000000000000000000000000000000000000000000000000000000000000000000000000000000000000000000000000000000000007E
:400280000000080000000004009000000000000000000000000000000000000000000000000000000000000000000000000000000000000001000004000004000002010096
:4002C0000000010000000000040000000104000000000100000002000000040102000002040401010000000000005014260400000000000000FFFFFF00A00001180000009A
:4003000001000000040404041131000140008000404080004000800040208000000000000000000000000000000000001C0002000901101610000C1C001C00030000030061
:400340000001000E1000000814000000000000000C00110000000000000000031F000000001A000F000000A000000000130500000000000000FFFFFF00AF07011800000056
:4003800000000000040404043301000140008000404080004000800040208000000000000000000000000000000000000D1000000D23001402030D2C0D0000000D02001DC0
:4003C00001100200021004000000000000100000020008000D01003A00000010001F00000F2000000000200200000010130500000000000000FFFFFF00AF070118000000FE
:400400000000022C040404042221000140008000404080004000800040208000000000000000000000000000000000000900000008000400090500020000000009030000A9
:4004400011060201140009041E00010000000000080001000100080000000000100700000F00000000023000000001001305000000C3E5021FFFFFFF00AF0701180000000A
:40048000090000000404040422210001400080004040800040008000402080000000000000000000000000000000000010000200020010000303180000020000000000003B
:4004C0000100140012030000000000001200000003000C00020000001200000100001F000000000388800000000040406502000000B0E0C02AFFFFFF0000F0440C000000D4
:40050000000000000404040002030001000000000000C00000004002000000000000000000000000000000000000000001010200010102000300000000000000000000009C
:400540000200010003000000030000000301000000000300010100000000000100010000030000000000000000000001340650000200000000FFFFFF0200700C0400000058
:400580000000000004040404020200010000C00040011011C001001140014001000000000000000000000000000000000000000000000000000B0004000001080000010691
:4005C000000400090100000001000000010D0002000000000100000000000000000E01010000000000000000000004003406500002DEFB0C1FFFFFFF2300F00C0400000017
:400600004000000004040404202200010000C00040011011C00100114001400100000000000000000000000000000000010000000C00020202000C010E0000000000100073
:4006400000000201000010000E04000000000100040000000C000000080000000E020100100100040000000000001450040000000004000000FF07FF4020F0050800000048
:4006800018000000040404046333000140A840200000000000000000000000000000000000000000000000000000000000000000010100000101000001000000000100002D
:4006C00000000000000000000000000000000000000000000000000001000000010000010000000000000002000001000000000000000000000000000000000000000000F4
:400700000000021304040004303000010000000000000000000000000000000000000000000000000000000000000000030000004F1F1000011F00004C01230642000000DE
:400740000C0A001173000C00000040000800000004000000000033007F1400297C0700180F00002000002200000000000000000000000000000000000000000000000000AC
:400780000000080004040004339000010000000000000000000000000000000000000000000000000000000000000000030040012700180018002700180027003F00000021
:4007C00018000000080000000200800000000000000007000100800010000000030120001C00C0000800200000004000360504000100E00C18FFFFFF62A0F0410C000000D7
:4008000000000000040404001303000100000000000040020010301000101012000000000000000000000000000000000000000000000000000000000000000000000000D1
:400840006F00000F001F00000000000000000000000000000000000000000000000000000000000038720000000000004A01000000000000000000004A0100001E0100007C
:400880000000000012011A010E00040000000000000000000000000000000000100000000000000000000000000000000000000000000000000000000000000000000000E8
:4008C00000000000000000000000000000000000000000000000000000000000000000000000000000000000000000000000000000000000000000000000000001000000F7
:4009000000000000000000000000000001000000000000005000000000000000000000000000000040000000000000000000000000000000000000280000000000000000FE
:400940000008000800000000000000000000000008000000000000000000000000000000000000000000000001000000000005000000000008000000080000000000000049
:4009800000000000000000000000000000000000000000000000000000000000000000284000000000000000000000000000000000000000000000000000000000000000CF
:4009C00000000000000000000000000000000000000000000000000000000000000000000000000000000000000000000000000000000000000000000000000000000000F7
:400A000000000000000000080100000001000002000000000000000000000000000000000000000000000000000000000000000200080000000000000000000000000000A0
:400A4000000000000000000000000000000000000E000000000000000000000000000000000000000000000000000300000000000000000000000000000000000000000065
:400A8000000000000000000000000000000000000000000000000000000000000000000000000000000000000000000000000002000800000000000000000000000000002C
:400AC00000000000000000000000000000000000000000000000000000000000000000000000000000000000000000000000000000000000000000000000000000000000F6
:400B000000000000000000000000000000000000000000000000000000000000000000000000000000000000000000000000000000000000000000000000000000000000B5
:400B4000000000000000000000000000000000000008000000000000000000000000000000000000000000000000000000000000000000000000000000000000000000006D
:400B80000000000000000000000000000800000000000000000080000000000000000000000000000000000008008000000000020000000000000080000000000000018022
:400BC00000000000000000000000000000000000000000000000000000000000010000000000000000000000000000000000000004000000000001000100000000000000EE
:400C00000000000000000000000000000000008200000000000000000000000000000000000000000000000000000000000000000000000000000000000000000000000032
:400C40000000000000000000000000000000000000000000000000000000000000000000000080000000000000000180000000000000000000000000000000000000000073
:400C8000000000000000000000000000000000000000000000000000000000000000000000000000000000000800000000000000000000000000000000000000000000002C
:400CC0000000000000000000000000000A000000000000000000000000000000000000000200050000000000000000000000000000000000000000000000000000000000E3
:400D000000000000000000000000000000000000000000000000000000000000000000000000000000000000000000000000000000000000000000000000000000000000B3
:400D40000000000000000000000000000000000000000000000000000000000000000000000000000000000000000000000000000000000000000000000000000000000073
:400D8000000000000000000008000000000000000000000000000000000000000000000000000000000000000000000000000000000000000000000000000000000000002B
:400DC00000000000000000000000000000000000000000000000000000000000000000000000000000000000000001000000000000000000000000000000000000000000F2
:400E000000000000000000000000000064004000401050800200140120001042A0000A00000802204020040004944000200800A10000004002201000000000000008000012
:400E400000000000001440000001000000000000008210000000000000000A40000000000010000480000000000000000200000200000000000000000000000000000000A9
:400E800000000000000000000000000000008000000000008000000000000000001D1000440040000000020000240040A0028A00001000040000000000000008000084004F
:400EC000000000000000000000000000FF00FF00EF0000000000080002008E00D00030000000080008000000000000000000800004000000100005001000000000000000B4
:400F00000000000000000000000000000080800000000000000000000000000000000000000000000000000000808000000000000000000000000000800000000080004071
:400F4000008000000000000000000000000000000000000000000000000000000000000000000000000000000000000000008000000000001000050010000200000000004A
:400F80000000000000000000000000004420000044200040020040000006000A0000020000014228000100000002040800040A000000808400000000000000000200000047
:400FC000000440000014000000280000000000000000000100000000000020000000000000000002080100040200000000000000080080000214000000000000A0001228C7
:401000000000000000000201000000000004000000000000000000000000000000000000000000000000400100000080000040000000200200000000000010002000000056
:40104000000000400000000000000000F700F000F100000000000000510066008000000000008100300000000000000001000400000000001000000000002000000000003B
:40108000000000000000000000000000000000000000000000000000000000000000000000000040000000008080800000000000000000000000000040000000000000012F
:4010C00004000000000000000000000000000000000000000000000000000000000000000000000000000000000000000100000000000000000000000000080000000000E3
:40110000000000000000000000000000002101100208280001004028900080000800100000000008002000000000800008020000025010080110130000000002080200105E
:4011400010002008000100280080280020000040200000400080000000000080000000000000000000000000000000800002000000000000180144100000000000000200B5
:401180000000000000000000000000000000000200400000840000000080004000000028000144002018480180800240A00000001850100200000000000000042A008000B1
:4011C0000008081000000000000000007F00DE002600000000001D00670077005A0018000000100001000000000000000000000040000000D000000000008000000000003E
:401200000000000000000000000000001080000000000000008210100000000040180080000000000842040000000000008004080000000000028000000000000000000147
:401240000000000000300000000000000000440000000000001000000000000000000000000000000040180100000040000000000000000000000000000000000000000051
:4012800000000000000000000000000000040000000200000000000000004000102000100000000000100080C00000080000000000060000000000004010000000004410A6
:4012C00050000000000000000000000003000D000F00000000000900010004000500040000001F000000000000000000000006004000000000000200000000000000000001
:40130000000000000000000000000000200100100410900041000028000804000800100001012610001008010008008400000200000000010000000000400002001802000F
:401340000000100000002020008000202000004000100000008200048040002000046000220000008004021000000000000000020000000000000000000000000000000089
:401380000000000000000000000000000000008000040000400006000002200004000220000144000004040040000200000000000808000000020000000000000800001062
:4013C0000400400000000000000000007E006F00F600000000001000270034002A00380000000F00080000000000000000005000040000000100000000000000000000008D
:4014000000000000000000000000000090000000000002020002000000000000540800200000000040100800000000001000000000000000500040000000000000020000A0
:40144000000000005000000000000000000040000000000100000000000000040000000000008A00800200280000000200000028000088040000000000004001000000802C
:40148000000000000000000000000000000000000400000000000000000000140000000000004000000200000400000000000000000000000000000000000080000000400E
:4014C000000000200000000000000000030008000E00000000000B0001000C008100000000008F007600000000000000000008000000040000000000800010000000000079
:40150000000000000000000000000000800000000402080000004500080009000801000000010404100000000000081000020010000002004002000008014000000A0000E4
:40154000000000008000002000000F0088080004C808000040040A2100000B0040200400000000000000000000000000102000010000000000000000010000000000000048
:40158000000000000000000000000000000000000000000000000000010000000000000000000000000000000000000000000000000000000000000000000000000000002A
:4015C0000000000000000000000000007100EB007A0000000000B1000300CC00E7003C00000000000E00000000000000000040000000000000000000000000000000000024
:401600000000000000000000000000000000000000000000002000000000000004000000000000000002000000000000002000000000002000000000000000400400000000
:401640000000000A00000000000000800000C0000000800000000000000000000000000000000040000000000000008000000000000000000000000A004020100000000066
:4016800000000000000000000000000000400000000010000000000000000010000000000000000000000000000000000000000000000000000000000000000000000000CA
:4016C000000000000000000000000000000002000200000000008000C200100081000000000010000000000000000000000040000000400000000000000000000000000083
:401700000000000000000000000000000000000000000000000050000000000000020000000080000000000000000000000040000000000000000000000000000000000097
:401740000000000000000000000000000000000000000000000000000000000000000000000000000000000000000000000000000000000000000000000000000000000069
:4017800000080000000000020000000000005000000000000008000000000000000000000000800000000000000080000000000200010000000010020000000000000000B2
:4017C0000011000000000000000000000000100030000000100000000000000000000000000000000000000080002000A0000000000000000000A0000000000000000000A8
:401800000000000000000000000000000000000000000000000000000000000000000000000000000000000000000000000000000010000000000000000000000000000098
:401840000000000000000000000000000000000000000000000000000000000000000000000000000000000000000000000000000000000000000000000000000000000068
:401880000000000000000000000000000000800000000000000000000000000000000000000090000000000000008000000000000000000000000000000000000000000098
:4018C0000000000000000000000000000000000000000000200000000000000000000000000000000000000000000000800000000000000000000000000000000000000048
:401900000000000000000000000000000000000000000000000000000000200000000000000090000000200000008000000000000000000000000000000000000000000057
:401940000000000000000000000000000000000000000000000000000000000000000000000000000000000000000000000000000000000000000000000000000000000067
:401980000000000000000000000000000000000000002000000000000000000080000000000000000000000000000000000000000000000000000000000000000000000087
:4019C00000000000000000000000100000000000000000000000000000000000000000000000000000080000000000000000000000000000000000000000000000000000CF
:401A0000000000000000000000000000000800000000000000000000000000000000000000008000000000000000800000000000800000000000000000008000800000001E
:401A40000100000000000000000000002000000010000000000000000000200000000000000040000000000000000000000000000000200040000000000000000000000075
:401A80000000000000000000000000000000000000000000000000000000000000000000000000000000000000000000000000000000000000000000000000000000000026
:401AC00000000000000000000000000000000000000000000000000000000000000000010000000000000000010000000000000A00000100000000000000000000000000D9
:401B0000000000000000000000000000000000010000000100000000000001040000000000008000000000000000000000000000000000000000000000000000000000001E
:401B400000000000000000000000000000000000000000000000000000000000000000008000C000C000000000000000000000000000300000000000000000000000000035
:401B800000000000000000000000000000000000000000000000000000000000000000000000000000000000000000000000000000000000000000000000000000004000E5
:401BC00000000000000000000000000000000000000000000000000000000000000000000000000000000000000000000000000000000000000000000000000000000000E5
:401C000000000000000000000000000000000000000000000000000000000000000000000000000000000000000000000000000000000000000000000000000000000000A4
:401C40000000000000000000000000000000000000000000000000001000000000000000000000000000000000000000000000000000000000000000000000000000000054
:401C800000000000000000000000000000F8F800F8000000830048888300830000000000000B0B00000000000400011E1A001A0000000000109080000000080067001801CE
:401CC00000000000000000000000000000000000000000000000000000000000000000000000000000000000000000000000000000000000000000000000000000000000E4
:401D000000000000000000000000000000000000000000000000000000000000000000000000000000000000000000000000000000000000000000000000000000000000A3
:401D40000000000000000000000000000000000000000000000000000000000000000000000000000000000000000000000000000000000000000000000000000000000063
:401D80000000000000000000000000000000000000000000000000000000000000000000000000000000000000000000000000000000000000000000000000000000000023
:0200000490006A
:0400000000004004B8
:0200000490105A
:04000000BC90ACAF55
:0200000490303A
:02000000428438
:0200000490402A
:4000000000000000000000000000000000000000000000000000000000000000000000000000000000000000000000000000000000000000000000000000000000000000C0
:400040000000000000000000000000000000000000000000000000000000000000000000000000000000000000000000000000000000000000000000000000000000000080
:400080000000000000000000000000000000000000000000000000000000000000000000000000000000000000000000000000000000000000000000000000000000000040
:4000C0000000000000000000000000000000000000000000000000000000000000000000000000000000000000000000000000000000000000000000000000000000000000
:0200000490501A
:0C00000000012E16106900012E3052ED98
:00000001FF